:0300000002020BEE
:0C020B00787FE4F6D8FD758113020252E2
:0C03F300010F00011000011100011200B8
:1003DE00EFD39400400EE4FEEEC3943950031E801A
:0403EE00F71F80EC89
:0103F20022E8
:10038200E4FDFCC3ED9FEC9E5015E4FBFA0BBB00B1
:0F039200010AEB647B4A70F50DBD00010C80E49D
:0103A1002239
:10014100D2AF1203C230900B7FD07E07120382B26E
:10015100918002D2917FD07E07120382309808C22B
:10016100988599131203507D0A120297E4F508F558
:1001710009AE08AF09E4FCFD7B407A9CF9F8D31283
:10018100012B400A0509E50970E7050880E312041F
:10019100007D32120297E4F508F509AE08AF09E4D3
:1001A100FCFD7B407A9CF9F8D312012B400A05092A
:1001B100E50970E7050880E31204007D5A120297F1
:1001C100E4F508F509AE08AF09E4FCFD7B407A9C33
:1001D100F9F8D312012B400A0509E50970E7050872
:1001E10080E3120400E4F508F509AE08AF09E4FC68
:1001F100FD7B407A9CF9F8D312012B500302014692
:0A0201000509E50970E4050880E036
:040297007F647E0002
:02029B008D0ACA
:10029D00AB07AA06E4F9F8FF7E107D0EFC12030CE5
:1002AD008F0E8E0D8D0C8C0BAF0AE4FCFDFEAB0E8C
:1002BD00AA0DA90CA80B12000EE47B64FAF9F81232
:1002CD000099AD07AC06C3E50E9DFFE50D9CAB0790
:1002DD00FAC3740C9DFDE49CFCC3740C9BFBE49A67
:1002ED008C0F8D10F5118B125389F0438901850FF9
:0E02FD008C85108AD2A9D28CD291D292D29343
:01030B0022CF
:0B040000C28CC2A9D291D292D29322EA
:03000B000203A24B
:1003A20030911030920D85118C85128AC291C292C1
:1003B200C29332850F8C85108AD291D292D2933217
:1003C200758920758BFD758DFD759850E4F587D282
:0C03D2008ED2AFD2ACC2A5C2A4C2A3223E
:0A040B00C2998513993099FDC2993A
:0104150022C4
:10035000E51324CE6014146015146016146017148D
:10036000601824057018C2A58014D2A58010C2A4FC
:10037000800CD2A48008C2A38004D2A380001204FF
:020380000B224E
:10021700020141E493A3F8E493A34003F68001F2BB
:1002270008DFF48029E493A3F85407240CC8C333E8
:10023700C4540F4420C8834004F456800146F6DFB7
:10024700E4800B01020408102040809003F3E47E51
:10025700019360BCA3FF543F30E509541FFEE493AC
:10026700A360010ECF54C025E060A840B8E493A373
:10027700FAE493A3F8E493A3C8C582C8CAC583CA9E
:10028700F0A3C8C582C8CAC583CADFE9DEE780BE56
:0103FF0000FD
:10000E00E88FF0A4CC8BF0A42CFCE98EF0A42CFC91
:10001E008AF0EDA42CFCEA8EF0A4CDA8F08BF0A40F
:10002E002DCC3825F0FDE98FF0A42CCD35F0FCEB6E
:10003E008EF0A4FEA9F0EB8FF0A4CFC5F02ECD3933
:0F004E00FEE43CFCEAA42DCE35F0FDE43CFC22A0
:10005D0075F008758200EF2FFFEE33FECD33CDCC5A
:10006D0033CCC58233C5829BED9AEC99E5829840DD
:10007D000CF582EE9BFEED9AFDEC99FC0FD5F0D6BA
:10008D00E4CEFBE4CDFAE4CCF9A88222B800C1B9E4
:10009D000059BA002DEC8BF084CFCECDFCE5F0CB22
:1000AD00F97818EF2FFFEE33FEED33FDEC33FCEB5B
:1000BD0033FB10D703994004EB99FB0FD8E5E4F916
:1000CD00FA227818EF2FFFEE33FEED33FDEC33FC03
:1000DD00C933C910D7059BE99A4007EC9BFCE99AF7
:1000ED00F90FD8E0E4C9FAE4CCFB2275F010EF2F3C
:1000FD00FFEE33FEED33FDCC33CCC833C810D7073C
:10010D009BEC9AE899400AED9BFDEC9AFCE899F876
:0E011D000FD5F0DAE4CDFBE4CCFAE4C8F92209
:10030C00C2D5E830E70FB2D5E4C39BFBE49AFAE41C
:10031C0099F9E498F8EC30E717B2D51203421200C1
:10032C0099E4C39BFBE49AFAE499F9E498F8800306
:10033C0012009930D50DE4C39FFFE49EFEE49DFDB1
:04034C00E49CFC220F
:10012B00EB9FF5F0EA9E42F0E99D42F0EC6480C84B
:06013B0064809845F022EB
:00000001FF
